{
  "contractName": "TicTacToe",
  "abi": [
    {
      "inputs": [],
      "name": "start",
      "outputs": [],
      "stateMutability": "payable",
      "type": "function",
      "payable": true
    },
    {
      "inputs": [
        {
          "internalType": "address payable",
          "name": "host",
          "type": "address"
        }
      ],
      "name": "join",
      "outputs": [],
      "stateMutability": "payable",
      "type": "function",
      "payable": true
    },
    {
      "inputs": [
        {
          "internalType": "address payable",
          "name": "host",
          "type": "address"
        },
        {
          "internalType": "uint256",
          "name": "row",
          "type": "uint256"
        },
        {
          "internalType": "uint256",
          "name": "column",
          "type": "uint256"
        }
      ],
      "name": "play",
      "outputs": [],
      "stateMutability": "nonpayable",
      "type": "function"
    },
    {
      "inputs": [
        {
          "internalType": "address payable",
          "name": "host",
          "type": "address"
        }
      ],
      "name": "claim_reward",
      "outputs": [],
      "stateMutability": "nonpayable",
      "type": "function"
    },
    {
      "inputs": [
        {
          "internalType": "address",
          "name": "host",
          "type": "address"
        }
      ],
      "name": "get_game_status",
      "outputs": [
        {
          "internalType": "uint256",
          "name": "",
          "type": "uint256"
        },
        {
          "internalType": "uint256",
          "name": "",
          "type": "uint256"
        },
        {
          "internalType": "address",
          "name": "",
          "type": "address"
        },
        {
          "internalType": "uint256",
          "name": "",
          "type": "uint256"
        },
        {
          "internalType": "uint256",
          "name": "",
          "type": "uint256"
        },
        {
          "internalType": "uint256",
          "name": "",
          "type": "uint256"
        }
      ],
      "stateMutability": "view",
      "type": "function",
      "constant": true
    },
    {
      "inputs": [],
      "name": "get_blocktimestamp",
      "outputs": [
        {
          "internalType": "uint256",
          "name": "",
          "type": "uint256"
        }
      ],
      "stateMutability": "view",
      "type": "function",
      "constant": true
    }
  ],
  "bytecode": "0x608060405234801561001057600080fd5b5061141b806100206000396000f3fe6080604052600436106100555760003560e01c806328ffe6c81461005a57806353d1a3b714610076578063882631111461009f578063a4d83ec5146100e1578063be9a65551461010c578063e8f8124314610116575b600080fd5b610074600480360381019061006f91906110b8565b61013f565b005b34801561008257600080fd5b5061009d600480360381019061009891906110b8565b610305565b005b3480156100ab57600080fd5b506100c660048036038101906100c1919061108f565b6104a5565b6040516100d896959493929190611169565b60405180910390f35b3480156100ed57600080fd5b506100f6610859565b604051610103919061114e565b60405180910390f35b610114610861565b005b34801561012257600080fd5b5061013d600480360381019061013891906110e1565b6108ff565b005b60003411156103025760008060008373ffffffffffffffffffffffffffffffffffffffff1673ffffffffffffffffffffffffffffffffffffffff16815260200190815260200160002090508060050160009054906101000a900460ff1680156101f85750600073ffffffffffffffffffffffffffffffffffffffff168160020160009054906101000a900473ffffffffffffffffffffffffffffffffffffffff1673ffffffffffffffffffffffffffffffffffffffff16145b80156102075750806000015434145b61021057600080fd5b600073ffffffffffffffffffffffffffffffffffffffff168160020160009054906101000a900473ffffffffffffffffffffffffffffffffffffffff1673ffffffffffffffffffffffffffffffffffffffff1614801561029c57508173ffffffffffffffffffffffffffffffffffffffff163373ffffffffffffffffffffffffffffffffffffffff1614155b1561030057348160000160008282546102b591906111ca565b92505081905550338160020160006101000a81548173ffffffffffffffffffffffffffffffffffffffff021916908373ffffffffffffffffffffffffffffffffffffffff1602179055505b505b50565b60008060008373ffffffffffffffffffffffffffffffffffffffff1673ffffffffffffffffffffffffffffffffffffffff1681526020019081526020016000209050600073ffffffffffffffffffffffffffffffffffffffff168160020160009054906101000a900473ffffffffffffffffffffffffffffffffffffffff1673ffffffffffffffffffffffffffffffffffffffff16141580156103ac575060008160000154115b80156103bb5750806003015442115b156104a15760028160010154141561041d578173ffffffffffffffffffffffffffffffffffffffff166108fc82600001549081150290604051600060405180830381858888f19350505050158015610417573d6000803e3d6000fd5b5061048d565b8060020160009054906101000a900473ffffffffffffffffffffffffffffffffffffffff1673ffffffffffffffffffffffffffffffffffffffff166108fc82600001549081150290604051600060405180830381858888f1935050505015801561048b573d6000803e3d6000fd5b505b600081600001819055506104a082610ccb565b5b5050565b60008060008060008060008060008973ffffffffffffffffffffffffffffffffffffffff1673ffffffffffffffffffffffffffffffffffffffff1681526020019081526020016000209050600060018260040160008081526020019081526020016000206000600281526020019081526020016000205461052691906111ca565b60018360040160008081526020019081526020016000206000600181526020019081526020016000205461055a91906111ca565b600a6105669190611251565b600184600401600080815260200190815260200160002060008081526020019081526020016000205461059991906111ca565b60646105a59190611251565b6105af91906111ca565b6105b991906111ca565b90506000600183600401600060018152602001908152602001600020600060028152602001908152602001600020546105f291906111ca565b6001846004016000600181526020019081526020016000206000600181526020019081526020016000205461062791906111ca565b600a6106339190611251565b60018560040160006001815260200190815260200160002060008081526020019081526020016000205461066791906111ca565b60646106739190611251565b61067d91906111ca565b61068791906111ca565b90506000600184600401600060028152602001908152602001600020600060028152602001908152602001600020546106c091906111ca565b600185600401600060028152602001908152602001600020600060018152602001908152602001600020546106f591906111ca565b600a6107019190611251565b60018660040160006002815260200190815260200160002060008081526020019081526020016000205461073591906111ca565b60646107419190611251565b61074b91906111ca565b61075591906111ca565b90506000808c73ffffffffffffffffffffffffffffffffffffffff1673ffffffffffffffffffffffffffffffffffffffff168152602001908152602001600020600001546000808d73ffffffffffffffffffffffffffffffffffffffff1673ffffffffffffffffffffffffffffffffffffffff168152602001908152602001600020600101546000808e73ffffffffffffffffffffffffffffffffffffffff1673ffffffffffffffffffffffffffffffffffffffff16815260200190815260200160002060020160009054906101000a900473ffffffffffffffffffffffffffffffffffffffff168585859950995099509950995099505050505091939550919395565b600042905090565b60003411156108fd5760008060003373ffffffffffffffffffffffffffffffffffffffff1673ffffffffffffffffffffffffffffffffffffffff16815260200190815260200160002090506000816000015414156108fb5760018160050160006101000a81548160ff0219169083151502179055506108df33610ccb565b348160000160008282546108f391906111ca565b925050819055505b505b565b60008060008573ffffffffffffffffffffffffffffffffffffffff1673ffffffffffffffffffffffffffffffffffffffff16815260200190815260200160002090506000600290508473ffffffffffffffffffffffffffffffffffffffff163373ffffffffffffffffffffffffffffffffffffffff16141561098057600190505b600082600001541180156109e55750600073ffffffffffffffffffffffffffffffffffffffff168260020160009054906101000a900473ffffffffffffffffffffffffffffffffffffffff1673ffffffffffffffffffffffffffffffffffffffff1614155b80156109f2575060008410155b80156109fe5750600384105b8015610a0b575060008310155b8015610a175750600383105b8015610a4957506000826004016000868152602001908152602001600020600085815260200190815260200160002054145b8015610a685750600082600301541480610a67575081600301544211155b5b8015610a7b57508060ff16826001015414155b15610cc3578060ff16826004016000868152602001908152602001600020600085815260200190815260200160002081905550610ab785610de3565b15610ba8578473ffffffffffffffffffffffffffffffffffffffff166108fc60028460000154610ae79190611220565b9081150290604051600060405180830381858888f19350505050158015610b12573d6000803e3d6000fd5b508160020160009054906101000a900473ffffffffffffffffffffffffffffffffffffffff1673ffffffffffffffffffffffffffffffffffffffff166108fc60028460000154610b629190611220565b9081150290604051600060405180830381858888f19350505050158015610b8d573d6000803e3d6000fd5b5060008260000181905550610ba185610ccb565b5050610cc6565b610bb5858260ff16610ec0565b15610ca05760018160ff161415610c16578473ffffffffffffffffffffffffffffffffffffffff166108fc83600001549081150290604051600060405180830381858888f19350505050158015610c10573d6000803e3d6000fd5b50610c86565b8160020160009054906101000a900473ffffffffffffffffffffffffffffffffffffffff1673ffffffffffffffffffffffffffffffffffffffff166108fc83600001549081150290604051600060405180830381858888f19350505050158015610c84573d6000803e3d6000fd5b505b60008260000181905550610c9985610ccb565b5050610cc6565b8060ff16826001018190555061025842610cba91906111ca565b82600301819055505b50505b505050565b60008060008373ffffffffffffffffffffffffffffffffffffffff1673ffffffffffffffffffffffffffffffffffffffff1681526020019081526020016000209050600081600001541415610ddf576001816001018190555060008160020160006101000a81548173ffffffffffffffffffffffffffffffffffffffff021916908373ffffffffffffffffffffffffffffffffffffffff1602179055506000816003018190555060005b6003811015610ddd5760005b6003811015610dc95760008360040160008481526020019081526020016000206000838152602001908152602001600020819055508080610dc1906112f9565b915050610d81565b508080610dd5906112f9565b915050610d75565b505b5050565b6000806000808473ffffffffffffffffffffffffffffffffffffffff1673ffffffffffffffffffffffffffffffffffffffff16815260200190815260200160002090506000805b6003811015610ea45760005b6003811015610e905760008460040160008481526020019081526020016000206000838152602001908152602001600020541115610e7d578280610e79906112f9565b9350505b8080610e88906112f9565b915050610e36565b508080610e9c906112f9565b915050610e2a565b5060098110610eb857600192505050610ebb565b50505b919050565b6000610ed88383600060016002600060016002610f65565b80610ef45750610ef383836000600160028060016000610f65565b5b15610f025760019050610f5f565b60005b6003811015610f5d57610f218484838485600060016002610f65565b80610f3b5750610f3a8484600060016002868788610f65565b5b15610f4a576001915050610f5f565b8080610f55906112f9565b915050610f05565b505b92915050565b6000806000808b73ffffffffffffffffffffffffffffffffffffffff1673ffffffffffffffffffffffffffffffffffffffff1681526020019081526020016000209050888160040160008a8152602001908152602001600020600087815260200190815260200160002054148015611002575088816004016000898152602001908152602001600020600086815260200190815260200160002054145b8015611033575088816004016000888152602001908152602001600020600085815260200190815260200160002054145b15611042576001915050611044565b505b98975050505050505050565b60008135905061105f816113a0565b92915050565b600081359050611074816113b7565b92915050565b600081359050611089816113ce565b92915050565b6000602082840312156110a157600080fd5b60006110af84828501611050565b91505092915050565b6000602082840312156110ca57600080fd5b60006110d884828501611065565b91505092915050565b6000806000606084860312156110f657600080fd5b600061110486828701611065565b93505060206111158682870161107a565b92505060406111268682870161107a565b9150509250925092565b611139816112ab565b82525050565b611148816112ef565b82525050565b6000602082019050611163600083018461113f565b92915050565b600060c08201905061117e600083018961113f565b61118b602083018861113f565b6111986040830187611130565b6111a5606083018661113f565b6111b2608083018561113f565b6111bf60a083018461113f565b979650505050505050565b60006111d5826112ef565b91506111e0836112ef565b9250827fffffffffffffffffffffffffffffffffffffffffffffffffffffffffffffffff0382111561121557611214611342565b5b828201905092915050565b600061122b826112ef565b9150611236836112ef565b92508261124657611245611371565b5b828204905092915050565b600061125c826112ef565b9150611267836112ef565b9250817fffffffffffffffffffffffffffffffffffffffffffffffffffffffffffffffff04831182151516156112a05761129f611342565b5b828202905092915050565b60006112b6826112cf565b9050919050565b60006112c8826112cf565b9050919050565b600073ffffffffffffffffffffffffffffffffffffffff82169050919050565b6000819050919050565b6000611304826112ef565b91507fffffffffffffffffffffffffffffffffffffffffffffffffffffffffffffffff82141561133757611336611342565b5b600182019050919050565b7f4e487b7100000000000000000000000000000000000000000000000000000000600052601160045260246000fd5b7f4e487b7100000000000000000000000000000000000000000000000000000000600052601260045260246000fd5b6113a9816112ab565b81146113b457600080fd5b50565b6113c0816112bd565b81146113cb57600080fd5b50565b6113d7816112ef565b81146113e257600080fd5b5056fea2646970667358221220df834fc87112ad4cb0f53beaab547c489e0e693aff458a22646daa011761a77c64736f6c63430008000033",
  "immutableReferences": {},
  "source": "pragma solidity ^0.8.0;\n\ncontract TicTacToe {\n    // Check wheter a message has value or not\n    modifier has_value {\n        if (msg.value > 0) _;\n    }\n\n    // Main struct that contains all game's info\n    struct Game {\n        uint256 balance;\n        uint256 turn;\n        address payable opposition;\n        uint256 time_limit;\n        mapping(uint256 => mapping(uint256 => uint256)) board;\n        bool isSet;\n    }\n\n    // keep track of all the current hosted games\n    mapping(address => Game) games;\n\n    // Function called by the client that want host the game to start it\n    function start() public payable has_value {\n        // Assign a struct to the host\n        Game storage g = games[msg.sender];\n        // Check if another game has already started at the same address\n        if (g.balance == 0) {\n            g.isSet = true;\n            restart(payable(msg.sender));\n            g.balance += msg.value;\n        }\n    }\n\n    //Function called by the opponent to join an hosted game,\n    //passing the host wallet addres as parameter\n    function join(address payable host) public payable has_value {\n        Game storage g = games[host];\n        // If the match does not exist or the opposition has already joined, exit.\n        //if(!g.isSet || g.opposition > 0 || msg.value != g.balance) throw;\n        require(\n            g.isSet && g.opposition == address(0) && msg.value == g.balance\n        );\n        // Check if the host is not challenging himself\n        if (g.opposition == address(0) && msg.sender != host) {\n            g.balance += msg.value;\n            g.opposition = payable(msg.sender);\n        }\n    }\n\n    //This function is needed to play a move on the board,\n    //take as arguments the wallet address of the host, row and columns where to put the sign\n    //Positions schema:\n    //[(0,0),(0,1),(0,2)]\n    //[(1,0),(1,1),(1,2)]\n    //[(2,0),(2,1),(2,2)]\n    function play(\n        address payable host,\n        uint256 row,\n        uint256 column\n    ) public {\n        Game storage g = games[host];\n\n        //Assign an int to identify players, host -> 1, opposition -> 2\n        uint8 player = 2;\n        if (msg.sender == host) player = 1;\n\n        // Performs some checks to verify the correctness of the move:\n        // 1 - There must be a bet value stored by the contract (balance)\n        // 2 - There must be an opponent to play\n        // 3 - You must play a move inside the board  0>=row>=2 and 0>=column>=2\n        // 4 - There should be no other moves played on the same place\n        // 5 - You must play in time w.r.t. TimeLimit\n        // 6 - There must be your turn\n        if (\n            g.balance > 0 &&\n            g.opposition != address(0) &&\n            row >= 0 &&\n            row < 3 &&\n            column >= 0 &&\n            column < 3 &&\n            g.board[row][column] == 0 &&\n            (g.time_limit == 0 || block.timestamp <= g.time_limit) &&\n            g.turn != player\n        ) {\n            // Put the move in the board\n            g.board[row][column] = player;\n\n            // If the board is full resend halved balance to each player\n            if (is_board_full(host)) {\n                host.transfer(g.balance / 2);\n                g.opposition.transfer(g.balance / 2);\n                g.balance = 0;\n                restart(host);\n                return;\n            }\n\n            // If the last move decreed a winner send thw whole balance to him\n            // and restart the game\n            if (is_winner(host, player)) {\n                if (player == 1) host.transfer(g.balance);\n                else g.opposition.transfer(g.balance);\n\n                g.balance = 0;\n                restart(host);\n                return;\n            }\n\n            // Set player's turn\n            g.turn = player;\n\n            // Set time limit for the next move (in seconds), 10 minutes.\n            g.time_limit = block.timestamp + (600);\n        }\n    }\n\n    // This function is called in order to claim the reward in case the opponent\n    // exceed the time limit.\n    function claim_reward(address payable host) public {\n        Game storage g = games[host];\n\n        if (\n            g.opposition != address(0) &&\n            g.balance > 0 &&\n            block.timestamp > g.time_limit\n        ) {\n            if (g.turn == 2) host.transfer(g.balance);\n            else g.opposition.transfer(g.balance);\n            g.balance = 0;\n            restart(host);\n        }\n    }\n\n    function check(\n        address host,\n        uint256 player,\n        uint256 r1,\n        uint256 r2,\n        uint256 r3,\n        uint256 c1,\n        uint256 c2,\n        uint256 c3\n    ) private view returns (bool retVal) {\n        Game storage g = games[host];\n        if (\n            g.board[r1][c1] == player &&\n            g.board[r2][c2] == player &&\n            g.board[r3][c3] == player\n        ) return true;\n    }\n\n    // Boolean function that verify wheter the board is in a winning condition or not\n    function is_winner(address host, uint256 player)\n        private\n        view\n        returns (bool winner)\n    {\n        // Verify if there's a winning streak on diagonals\n        if (\n            check(host, player, 0, 1, 2, 0, 1, 2) ||\n            check(host, player, 0, 1, 2, 2, 1, 0)\n        ) return true;\n\n        // Verify if there's a winning streak on rows and columns\n        for (uint256 r = 0; r < 3; r++)\n            if (\n                check(host, player, r, r, r, 0, 1, 2) ||\n                check(host, player, 0, 1, 2, r, r, r)\n            ) return true;\n    }\n\n    // Booleand function that verify wheter the board is full or not\n    // Simply counts number of signs, if thet are 9 then the board is full\n    function is_board_full(address host) private view returns (bool retVal) {\n        Game storage g = games[host];\n        uint256 count = 0;\n        for (uint256 r = 0; r < 3; r++)\n            for (uint256 c = 0; c < 3; c++) if (g.board[r][c] > 0) count++;\n        if (count >= 9) return true;\n    }\n\n    // Function used to restart the game, it's possible only if there's not\n    // appended balance.\n    function restart(address payable host) private {\n        Game storage g = games[host];\n        if (g.balance == 0) {\n            g.turn = 1;\n            g.opposition = payable(address(0));\n            g.time_limit = 0;\n\n            for (uint256 r = 0; r < 3; r++)\n                for (uint256 c = 0; c < 3; c++) g.board[r][c] = 0;\n        }\n    }\n\n    // Debug function to print some attributes of the game\n    function get_game_status(address host)\n        public\n        view\n        returns (\n            uint256,\n            uint256,\n            address,\n            uint256,\n            uint256,\n            uint256\n        )\n    {\n        Game storage g = games[host];\n        uint256 row1 =\n            (100 * (g.board[0][0] + 1)) +\n                (10 * (g.board[0][1] + 1)) +\n                (g.board[0][2] + 1);\n        uint256 row2 =\n            (100 * (g.board[1][0] + 1)) +\n                (10 * (g.board[1][1] + 1)) +\n                (g.board[1][2] + 1);\n        uint256 row3 =\n            (100 * (g.board[2][0] + 1)) +\n                (10 * (g.board[2][1] + 1)) +\n                (g.board[2][2] + 1);\n\n        return (\n            games[host].balance,\n            games[host].turn,\n            games[host].opposition,\n            row1,\n            row2,\n            row3\n        );\n    }\n\n    // Debug function to print out the current block timestamp\n    function get_blocktimestamp() public view returns (uint256) {\n        return (block.timestamp);\n    }\n}\n",
  "sourcePath": "/Users/abhiaiyer/Projects/exploring-moralis/web3/contracts/tictactoe.sol",
  "compiler": {
    "name": "solc",
    "version": "0.8.0+commit.c7dfd78e.Emscripten.clang"
  },
  "schemaVersion": "3.3.4",
  "updatedAt": "2021-03-28T18:31:52.244Z",
  "networkType": "ethereum",
  "devdoc": {
    "kind": "dev",
    "methods": {},
    "version": 1
  },
  "userdoc": {
    "kind": "user",
    "methods": {},
    "version": 1
  }
}